{
    "contractName": "Withdrawal",
    "abi": [
        {
            "inputs": [],
            "stateMutability": "nonpayable",
            "type": "constructor"
        },
        {
            "inputs": [],
            "name": "amount",
            "outputs": [
                {
                    "internalType": "int256",
                    "name": "",
                    "type": "int256"
                }
            ],
            "stateMutability": "view",
            "type": "function"
        },
        {
            "inputs": [],
            "name": "getAmountWithdraw",
            "outputs": [
                {
                    "internalType": "string",
                    "name": "",
                    "type": "string"
                }
            ],
            "stateMutability": "view",
            "type": "function"
        },
        {
            "inputs": [],
            "name": "getMessage",
            "outputs": [
                {
                    "internalType": "int256",
                    "name": "",
                    "type": "int256"
                }
            ],
            "stateMutability": "view",
            "type": "function"
        },
        {
            "inputs": [],
            "name": "getResult",
            "outputs": [
                {
                    "internalType": "address[]",
                    "name": "",
                    "type": "address[]"
                }
            ],
            "stateMutability": "view",
            "type": "function"
        },
        {
            "inputs": [],
            "name": "last_completed_migration",
            "outputs": [
                {
                    "internalType": "uint256",
                    "name": "",
                    "type": "uint256"
                }
            ],
            "stateMutability": "view",
            "type": "function"
        },
        {
            "inputs": [],
            "name": "owner",
            "outputs": [
                {
                    "internalType": "address",
                    "name": "",
                    "type": "address"
                }
            ],
            "stateMutability": "view",
            "type": "function"
        },
        {
            "inputs": [
                {
                    "internalType": "int256",
                    "name": "value",
                    "type": "int256"
                }
            ],
            "name": "postMessage",
            "outputs": [],
            "stateMutability": "nonpayable",
            "type": "function"
        },
        {
            "inputs": [
                {
                    "internalType": "uint256",
                    "name": "completed",
                    "type": "uint256"
                }
            ],
            "name": "setCompleted",
            "outputs": [],
            "stateMutability": "nonpayable",
            "type": "function"
        },
        {
            "inputs": [],
            "name": "setFill",
            "outputs": [
                {
                    "internalType": "int256",
                    "name": "",
                    "type": "int256"
                }
            ],
            "stateMutability": "view",
            "type": "function"
        },
        {
            "inputs": [
                {
                    "internalType": "string",
                    "name": "id",
                    "type": "string"
                },
                {
                    "internalType": "address",
                    "name": "sendAddress",
                    "type": "address"
                }
            ],
            "name": "setOwner",
            "outputs": [],
            "stateMutability": "nonpayable",
            "type": "function"
        },
        {
            "inputs": [],
            "name": "transaction_id",
            "outputs": [
                {
                    "internalType": "string",
                    "name": "",
                    "type": "string"
                }
            ],
            "stateMutability": "view",
            "type": "function"
        },
        {
            "inputs": [
                {
                    "internalType": "address",
                    "name": "to",
                    "type": "address"
                },
                {
                    "internalType": "uint256",
                    "name": "value",
                    "type": "uint256"
                }
            ],
            "name": "transfer",
            "outputs": [
                {
                    "internalType": "bool",
                    "name": "",
                    "type": "bool"
                }
            ],
            "stateMutability": "nonpayable",
            "type": "function"
        },
        {
            "inputs": [
                {
                    "internalType": "uint256",
                    "name": "",
                    "type": "uint256"
                }
            ],
            "name": "userAddress",
            "outputs": [
                {
                    "internalType": "address",
                    "name": "",
                    "type": "address"
                }
            ],
            "stateMutability": "view",
            "type": "function"
        },
        {
            "inputs": [
                {
                    "internalType": "address",
                    "name": "",
                    "type": "address"
                }
            ],
            "name": "userStructs",
            "outputs": [
                {
                    "internalType": "string",
                    "name": "ownerGuId",
                    "type": "string"
                },
                {
                    "internalType": "address",
                    "name": "addressOwner",
                    "type": "address"
                }
            ],
            "stateMutability": "view",
            "type": "function"
        }
    ],
    "bytecode": "608060405234801561001057600080fd5b5060408051602081019091526000815260059061002d90826100d2565b50610191565b634e487b7160e01b600052604160045260246000fd5b600181811c9082168061005d57607f821691505b60208210810361007d57634e487b7160e01b600052602260045260246000fd5b50919050565b601f8211156100cd57600081815260208120601f850160051c810160208610156100aa5750805b601f850160051c820191505b818110156100c9578281556001016100b6565b5050505b505050565b81516001600160401b038111156100eb576100eb610033565b6100ff816100f98454610049565b84610083565b602080601f831160018114610134576000841561011c5750858301515b600019600386901b1c1916600185901b1785556100c9565b600085815260208120601f198616915b8281101561016357888601518255948401946001909101908401610144565b50858210156101815787850151600019600388901b60f8161c191681555b5050505050600190811b01905550565b6108eb806101a06000396000f3fe608060405234801561001057600080fd5b50600436106100ea5760003560e01c80639674a0ac1161008c578063aa8c217c11610066578063aa8c217c146101d6578063ce6d41de14610104578063de292789146101df578063fdacd576146101f457600080fd5b80639674a0ac14610198578063a42b08ec146101ab578063a9059cbb146101b357600080fd5b8063381ff4b0116100c8578063381ff4b01461013c5780633ba6e8ce14610151578063445df0ac146101645780638da5cb5b1461016d57600080fd5b8063092b25e9146100ef5780630b4d74cc1461010457806319447eb61461011b575b600080fd5b6101026100fd366004610575565b610207565b005b6004545b6040519081526020015b60405180910390f35b61012e610129366004610637565b610287565b60405161011292919061069f565b610144610334565b60405161011291906106c9565b61010261015f3660046106dc565b600455565b61010860035481565b600254610180906001600160a01b031681565b6040516001600160a01b039091168152602001610112565b6101806101a63660046106dc565b6103c6565b6101446103f0565b6101c66101c13660046106f5565b61047e565b6040519015158152602001610112565b61010860045481565b6101e7610491565b604051610112919061071f565b6101026102023660046106dc565b6104f2565b33600090815260208190526040902061022083826107f5565b50336000818152602081905260408120600190810180546001600160a01b039095166001600160a01b03199586161790558054808201825591527fb10e2d527612073b26eecdfd717e6a320cf44b4afac2b0732d9fcbe2b7fa0cf601805490921617905550565b6000602081905290815260409020805481906102a29061076c565b80601f01602080910402602001604051908101604052809291908181526020018280546102ce9061076c565b801561031b5780601f106102f05761010080835404028352916020019161031b565b820191906000526020600020905b8154815290600101906020018083116102fe57829003601f168201915b505050600190930154919250506001600160a01b031682565b6060600580546103439061076c565b80601f016020809104026020016040519081016040528092919081815260200182805461036f9061076c565b80156103bc5780601f10610391576101008083540402835291602001916103bc565b820191906000526020600020905b81548152906001019060200180831161039f57829003601f168201915b5050505050905090565b600181815481106103d657600080fd5b6000918252602090912001546001600160a01b0316905081565b600580546103fd9061076c565b80601f01602080910402602001604051908101604052809291908181526020018280546104299061076c565b80156104765780601f1061044b57610100808354040283529160200191610476565b820191906000526020600020905b81548152906001019060200180831161045957829003601f168201915b505050505081565b600061048b33848461050d565b92915050565b606060018054806020026020016040519081016040528092919081815260200182805480156103bc57602002820191906000526020600020905b81546001600160a01b031681526001909101906020018083116104cb575050505050905090565b6002546001600160a01b0316330361050a5760038190555b50565b6001600160a01b03821661052057600080fd5b6001600160a01b03831661053357600080fd5b61053d828261047e565b50505050565b634e487b7160e01b600052604160045260246000fd5b80356001600160a01b038116811461057057600080fd5b919050565b6000806040838503121561058857600080fd5b823567ffffffffffffffff808211156105a057600080fd5b818501915085601f8301126105b457600080fd5b8135818111156105c6576105c6610543565b604051601f8201601f19908116603f011681019083821181831017156105ee576105ee610543565b8160405282815288602084870101111561060757600080fd5b82602086016020830137600060208483010152809650505050505061062e60208401610559565b90509250929050565b60006020828403121561064957600080fd5b61065282610559565b9392505050565b6000815180845260005b8181101561067f57602081850181015186830182015201610663565b506000602082860101526020601f19601f83011685010191505092915050565b6040815260006106b26040830185610659565b905060018060a01b03831660208301529392505050565b6020815260006106526020830184610659565b6000602082840312156106ee57600080fd5b5035919050565b6000806040838503121561070857600080fd5b61071183610559565b946020939093013593505050565b6020808252825182820181905260009190848201906040850190845b818110156107605783516001600160a01b03168352928401929184019160010161073b565b50909695505050505050565b600181811c9082168061078057607f821691505b6020821081036107a057634e487b7160e01b600052602260045260246000fd5b50919050565b601f8211156107f057600081815260208120601f850160051c810160208610156107cd5750805b601f850160051c820191505b818110156107ec578281556001016107d9565b5050505b505050565b815167ffffffffffffffff81111561080f5761080f610543565b6108238161081d845461076c565b846107a6565b602080601f83116001811461085857600084156108405750858301515b600019600386901b1c1916600185901b1785556107ec565b600085815260208120601f198616915b8281101561088757888601518255948401946001909101908401610868565b50858210156108a55787850151600019600388901b60f8161c191681555b5050505050600190811b0190555056fea26469706673582212204fa4b7d7f898cda5d4a6e93ea689d483105cdf934b5d6ad5985aed32d444c8d764736f6c63430008130033",
    "sourcePath": "c:/Project/Topfinex/Gateway/tron/transaction.sol",
    "compiler": {
        "name": "solc",
        "version": "0.8.19+commit.7dd6d404"
    },
    "functionHashes": {
        "amount()": "aa8c217c",
        "getAmountWithdraw()": "381ff4b0",
        "getMessage()": "ce6d41de",
        "getResult()": "de292789",
        "last_completed_migration()": "445df0ac",
        "owner()": "8da5cb5b",
        "postMessage(int256)": "3ba6e8ce",
        "setCompleted(uint256)": "fdacd576",
        "setFill()": "0b4d74cc",
        "setOwner(string,address)": "092b25e9",
        "transaction_id()": "a42b08ec",
        "transfer(address,uint256)": "a9059cbb",
        "userAddress(uint256)": "9674a0ac",
        "userStructs(address)": "19447eb6"
    },
    "gasEstimates": {
        "creation": {
            "codeDepositCost": "456600",
            "executionCost": "infinite",
            "totalCost": "infinite"
        },
        "external": {
            "amount()": "2306",
            "getAmountWithdraw()": "infinite",
            "getMessage()": "2314",
            "getResult()": "infinite",
            "last_completed_migration()": "2351",
            "owner()": "2426",
            "postMessage(int256)": "22357",
            "setCompleted(uint256)": "24560",
            "setFill()": "2316",
            "setOwner(string,address)": "infinite",
            "transaction_id()": "infinite",
            "transfer(address,uint256)": "infinite",
            "userAddress(uint256)": "4637",
            "userStructs(address)": "infinite"
        },
        "internal": {
            "_transfer(address,address,uint256)": "infinite"
        }
    }
}